8=FIX.5.0SP2|9=84|35=E|1128=9|66=ID-1|68=2|73=2|11=ORD-ID-1|67=1|54=1|40=1|11=ORD-ID-2|67=2|54=1|40=1|10=155|