8=FIX.5.0SP2|9=129|35=E|1128=9|66=ID-1|68=2|73=2|11=ORD-ID-1|67=1|54=1|40=1|11=ORD-ID-2|67=2|54=1|40=1|78=2|79=ACCOUNT-1|80=100|79=ACCOUNT-2|80=100|10=75|